:020000040800F2
:10000000FCFF002051060008A1060008A106000818
:10001000A1060008A1060008A106000800000000D3
:10002000000000000000000000000000A106000821
:10003000A106000800000000A10600086D2D0008C0
:10004000A1060008A1060008A1060008A1060008F4
:10005000A1060008A1060008A1060008A1060008E4
:10006000A1060008A1060008A1060008A1060008D4
:10007000A1060008A1060008A1060008A1060008C4
:10008000A1060008A1060008A10600080000000063
:10009000000000000000000000000000A1060008B1
:1000A000A1060008A1060008A1060008A106000894
:1000B000A1060008A1060008A1060008A106000884
:1000C000A1060008A1060008A1060008A106000874
:1000D000A1060008A1060008A10600080000000013
:1000E000A1060008A1060008A10600080000000003
:1000F000000000000000000000000000A106000851
:1001000000000000A1060008A1060008A1060008E2
:1001100000000000000000000000000000000000DF
:10012000A1060008A1060008A1060008A106000813
:10013000A106000800000000000000000000000010
:10014000000000000000000000000000C92D0008B1
:10015000A1060008A1060008A1060008A1060008E3
:10016000A1060008A1060008000000000000000031
:10017000000000000000000000000000000000007F
:1001800000000000A10600080000000000000000C0
:04019000A1060008BC
:1001C00070B50D4E0D4D761BB61006D000240134CF
:1001D00055F8043B9847A642F9D1094E094D761BC4
:1001E00002F0C2FDB61006D00024013455F8043BDD
:1001F0009847A642F9D170BD4C3A00084C3A000825
:100200004C3A00084C3A0008032A70B412D940EA6C
:100210000105AD0704460B4620D11946204653F888
:10022000045B54F8046BAE4218D1043A032A20460A
:100230001946F2D8541E72B103780A789A4208BF60
:10024000241806D00CE010F8013F11F8012F93425A
:1002500006D1A042F7D1002070BC7047541EEBE7D6
:10026000981A70BC704700BF844641EA000313F03F
:1002700003036DD1403A41D351F8043B40F8043BAD
:1002800051F8043B40F8043B51F8043B40F8043B70
:1002900051F8043B40F8043B51F8043B40F8043B60
:1002A00051F8043B40F8043B51F8043B40F8043B50
:1002B00051F8043B40F8043B51F8043B40F8043B40
:1002C00051F8043B40F8043B51F8043B40F8043B30
:1002D00051F8043B40F8043B51F8043B40F8043B20
:1002E00051F8043B40F8043B51F8043B40F8043B10
:1002F00051F8043B40F8043B403ABDD2303211D3B0
:1003000051F8043B40F8043B51F8043B40F8043BEF
:1003100051F8043B40F8043B51F8043B40F8043BDF
:10032000103AEDD20C3205D351F8043B40F8043BAF
:10033000043AF9D2043208D0D2071CBF11F8013BAD
:1003400000F8013B01D30B8803806046704700BF73
:10035000082A13D38B078DD010F003038AD0C3F182
:100360000403D21ADB071CBF11F8013B00F8013B64
:1003700080D331F8023B20F8023B7BE7043AD9D323
:10038000013A11F8013B00F8013BF9D20B780370F8
:100390004B7843708B788370604670478842F0B426
:1003A0000DD98B1883420AD9841832B1224613F82A
:1003B000014D02F8014D9942F9D1F0BC70470F2A66
:1003C0000ED80346541E002AF7D001340C44013BDA
:1003D00011F8012B03F8012FA142F9D1F0BC7047AD
:1003E00040EA01039B073BD1A2F110073F0901F14D
:1003F000200606EB071601F1100300F1100453F874
:10040000105C44F8105C53F80C5C44F80C5C53F836
:10041000085C44F8085C53F8045C44F8045C10334E
:10042000B34204F11004EAD17B1C1B0112F00C0F43
:10043000194402F00F05034415D0043DAD0803EB49
:10044000850C1C1F0E4656F8047B44F8047F644557
:10045000F9D10135AD002B44294402F00302B1E784
:10046000541E0346B1E72A46ACE700BFF0B4860746
:1004700046D0541E002A3CD0CAB2034602E014F112
:10048000FF3436D303F8012B9D07F8D1032C29D96B
:10049000CDB245EA05250F2C45EA054533D9A4F12F
:1004A0001006360903F1200707EB061703F11002C7
:1004B00042E9045542E902551032BA42F8D1721CA1
:1004C00014F00C0F03EB021204F00F0613D0331FCD
:1004D00023F003030433134442F8045B9342FBD13B
:1004E00006F003042CB1C9B21C4403F8011B9C4262
:1004F000FBD1F0BC704734461346002CF3D1F8E72B
:1005000014460346C2E71A462646E0E7000000000C
:1005100000000000000000000000000000000000DB
:1005200000000000000000000000000000000000CB
:1005300000000000000000000000000000000000BB
:1005400090F800F06DE9024520F007016FF0000C13
:1005500010F0070491F820F040F049804FF00004BB
:100560006FF00700D1E9002391F840F000F1080096
:1005700082FA4CF2A4FA8CF283FA4CF3A2FA8CF3CE
:100580004BBBD1E9022382FA4CF200F10800A4FA35
:100590008CF283FA4CF3A2FA8CF3E3B9D1E9042389
:1005A00082FA4CF200F10800A4FA8CF283FA4CF3C0
:1005B000A2FA8CF37BB9D1E9062301F1200182FA7A
:1005C0004CF200F10800A4FA8CF283FA4CF3A2FA80
:1005D0008CF3002BC6D0002A04BF04301A4612BA8E
:1005E000B2FA82F2FDE8024500EBD2007047D1E991
:1005F000002304F00305C4F100004FEAC50514F020
:10060000040F91F840F00CFA05F562EA05021CBFF0
:1006100063EA050362464FF00004A9E753B94AB9FB
:10062000002908BF00281CBF4FF0FF314FF0FF30FA
:1006300000F00CB8ADF1080C6DE904CE02F06EFFCD
:10064000DDF804E0DDE9022304B07047704700BF25
:10065000DFF834D0002103E00C4B5B5843500431E9
:100660000B480C4B42189A42F6D30B4A02E0002387
:1006700042F8043B094B9A42F9D302F041FFFFF7DD
:100680009FFD01F073FC7047FCFF00204C3A00080E
:1006900000000020F0000020F0000020641C00207A
:1006A000FEE7000000F07F014B01C20903F1A04307
:1006B00031D003F5106019B1D3F80029002A13DBFB
:1006C000D3F8002942F00262C3F800294FF0A0439A
:1006D0001A6942EA811119611A6942F020021A610D
:1006E0001A699106FCD47047D3F8002942F00062E1
:1006F000C3F8002982685206FCD5D3F8002942F0DD
:10070000804242F40012C3F8002983689B07FCD59D
:1007100002238360DAE703F5306019B1D3F8002BC8
:10072000002A06DBD3F8002B42F40012C3F8002B9A
:1007300070470E494A6842F400724A604FF0A04187
:100740004A691206FCD5D3F8002B42F0804242F4ED
:100750000012C3F8002B83689B07FCD5034A0223D1
:100760008360536843F4806353607047000800500F
:100770000B4B63B10B4B1B78834206D90A4B1B68AA
:1007800000EB400003EBC0007047C01AC0B2012864
:1007900003D8064B00EB4000F4E70020704700BF91
:1007A00000000000F8000020F40000207438000869
:1007B000CB6802490B610021184700BFFC000020F4
:1007C0000B4B4FF47A721B68B3FBF2F358430138BA
:1007D000B0F1807F0AD24FF0E023064A5861F02141
:1007E00082F8231000229A6107221A61704700BF25
:1007F0000000002000ED00E04FF0E022136923F03C
:1008000001031361704700002DE9F74F604ADFF8DC
:10081000888100234FF0010E0E680EFA03F404EAFB
:100820000605B44340F0A7804C6824F010045E0035
:100830004FF0030C013C0CFA06FC012C6FEA0C0C87
:1008400011D8846804EA0C09CC68B44044EA09046D
:100850008460446824EA05094C68C4F300149C4091
:1008600044EA09044460C46804EA0C098C68B44092
:1008700044EA0904C4604C6824F01004022C16D128
:100880004FEAD30A00EB8A0A03F0070BDAF820409C
:100890004FEA8B0B4FF00F0909FA0BF924EA09090B
:1008A0000C6904FA0BF444EA0904CAF8204004680D
:1008B00004EA0C0C4C6804F00304B44044EA0C0451
:1008C00004604C68E40056D5324F002401947E6CDD
:1008D00046F480467E647E6C06F480460196019E56
:1008E00023F0030606F1804606F59C3603F0030963
:1008F000D6F808A04FEA89094FF00F0CA7F560570A
:100900000CFA09FCB8422AEA0C0C11D004F180441C
:1009100004F50134A04235D004F58064A04233D000
:10092000404533D004F50064A0420CBF04240724E2
:1009300004FA09F444EA0C04B4604F681468EE4306
:10094000FF034CBF2C43344014604F685468BF030E
:100950004CBF2C43344054604F689468FF024CBF36
:100960002C43344094604F68D468BF0254BF06EAF9
:1009700004052543D5600133102B7FF44DAF03B040
:10098000BDE8F08F0124D3E70224D1E70324CFE7A9
:10099000003C014000380240000C024030B52B4BB7
:1009A0002B4C0022DA6125682A4AD168C90344D455
:1009B000D168C80744BF0121D160D06810F4F97034
:1009C00042D0D168C90605D5D96941F01001D96175
:1009D0001021D1601F4AD1688D0605D5D96941F033
:1009E0000801D9612021D160D1684C0605D5D969AB
:1009F00041F00401D9614021D160164AD16808064E
:100A000005D5D96941F00201D9618021D160D16851
:100A1000C90506D5D96941F00101D9614FF480714A
:100A2000D1600C49CA68920705D5DA6942F0200204
:100A3000DA610223CB60012006E0411CB5D02168B9
:100A4000491B8142B1D9032030BD00BFC01B00202B
:100A5000E01B0020003C024030B560B9374B384DF8
:100A600003EB011335F811405B89A34228BF2346ED
:100A7000E41A25F81140450101294FEAC24405F165
:100A8000A0422CD11C43C2F81049D2F8001941F001
:100A90000441C2F80019D2F8001901F44021B1F55F
:100AA000802F13D1254901EB4011097F01290DD178
:100AB00024498C68D2F8001914F4807F14BF4FF0D9
:100AC00080544FF000542143C2F8001933B11D4A3D
:100AD0000123516B03FA00F00843506330BDD2F894
:100AE000101B01F06041C2F8101BD2F8101B0C4320
:100AF0002343C2F8103BD2F8003B43F00443C2F852
:100B0000003BD2F8003B03F44023B3F5802FE5D13E
:100B10000A4B03EB4010037B012BDFD1094B996893
:100B2000D2F8003B11F4807F14BF4FF080514FF09A
:100B300000510B43C2F8003BD0E700BFE41B00208C
:100B4000A21B00200008005010B50446FFF7AAFDC4
:100B5000094B04F07F0003EB400303EBD41090F843
:100B6000253043F0020380F8253090F8253043F01B
:100B7000010380F8253010BD7C120020F8B5204C10
:100B8000064600F07F0004EB4004134604EBD61247
:100B90000F4692F8254014F0010402F120024FEABA
:100BA000D6114FEA400509D04FF0E023D3F8F00DFD
:100BB00010F0010001D000BE0020F8BD567946F0CB
:100BC000010656710F4E6A18150106EB0212775195
:100BD0005460138138B90C4A22F811300122FFF712
:100BE0003BFF0120E9E75589B3FBF5F4A2B205FB11
:100BF0001434E4B20CB9002BF1D1013292B2EEE719
:100C00007C120020E41B0020A21B002010B5154C14
:100C1000A078627888420BD08A421AD1124A0AB967
:100C2000012010BD1149DAB20020AFF30080F7E7D0
:100C30008242F3D0402204F14801FFF79FFF0028D1
:100C4000EED14FF0E023D3F8F03DDA0708D500BE2F
:100C5000E7E74FF0E023D3F8F03DDB0700D500BE17
:100C60000020DEE7580100200000000060010020A5
:100C7000174B10B5174C9BB1607BAFF3008078B970
:100C8000A368A362012384F82C3042F2077384F82E
:100C90003E00A38794F82F00BDE81040FFF754BF33
:100CA000A268A36B0C4994F82F00D21AB2F5805FAA
:100CB00028BF4FF4805292B2FFF760FF30B94FF077
:100CC000E023D3F8F03DDB0700D500BE10BD00BF28
:100CD00000000000EC110020EC01002010F0800F5B
:100CE0004FF0000211460CBF80201046FFF746BFB0
:100CF00010B40346064C00685968224603C200221D
:100D0000C4E902225DF8044B1878FFF7E7BF00BF83
:100D1000FC0000202DE9F04F85B0CDE90213844B93
:100D2000DFF818E21988834F002401944FF0A0489F
:100D3000DDE901539D4204DB0CB17D4B198001209C
:100D400044E04378052B04D0002C37D0784B198031
:100D500034E0C37803F003039342F5D1022A16D09E
:100D6000032A00F09B80012AEED19EF80230022B6C
:100D700040F2FF330CBF4FF4806C9C4645790379F9
:100D800005F0070543EA0523634524DD0CE04379BC
:100D9000057903F0070345EA03239EF80250022D6C
:100DA00017D1B3F5007F16D00CB1614B19804FF00D
:100DB000E023D3F8F03DDA0700D500BE4FF0E02382
:100DC000D3F8F03DDB0700D500BE002005B0BDE83C
:100DD000F08F402BE8D890F802C01CF07C0FE3D1D4
:100DE0000CF07F0390F805A0534E90F804905D003E
:100DF00005EBDC1506EB05150AF0070A49EA0A2996
:100E0000A5F80A9090F8069085F80C9090F8059057
:100E1000057909F0070945EA092503355FEADC167B
:100E20004FEAA5094FEA950541D1D8F824C06D00D5
:100E30001735AC4506D205EB010CBCF5A07FB3DC41
:100E4000C8F8245090F805A090F8039005794FEA6F
:100E5000431C0CF1A04C0AF0070A09F0030945EA0B
:100E60000A25DCF800BB45EA894545F4004545EA1A
:100E70000B05CCF8005BFD691033012606FA03F37D
:100E80002B43FB618378DD0914BF0E9D039D2B70FE
:100E900003781844019B0133019349E79EF802301F
:100EA000022B0CBF4FF4806C4FF0400C66E7D8F873
:100EB00024A001EB090CD444BCF5A07F3FF674AF2D
:100EC00029449C0089B204F1A044C1F5A07545EA0B
:100ED0000945C4F80051C4784FEA431C04F00309E3
:100EE0009D054C460CF1A04C45EA894590F80590CB
:100EF000DCF800B9012C047909F0070944EA092457
:100F000045F4004544EA0B0444EA050414BF4FF0DD
:100F1000805A4FF0000A44EA0A04CCF80049FC6900
:100F2000012505FA03F32343FB612C46AAE700BF22
:100F3000F000002000080050E41B00207C1200207C
:100F4000F7B50E464979032903D00024204603B0A3
:100F5000F0BD3479C4EBC4041234A4B2A24207D267
:100F60004FF0E023D3F8F03DDA07EED500BEECE712
:100F70001A4D6A78002AF3D13378F018C5F8880042
:100F80004778212FECD1F75C6B1C00930A46AB1C11
:100F900031793844FFF7BEFE0028E1D0B379A87854
:100FA000012B04BFF379EB7001232B71B3782B7005
:100FB000D5F88830B3F80730EB800028C6D0084950
:100FC0004022FFF7DBFD0028C0D14FF0E023D3F82B
:100FD000F03DDB07BAD500BEB8E700BF58010020DE
:100FE000A001002037B54B79082B084602D000201D
:100FF00003B030BD8B79062BF9D1CB79502BF6D1CC
:10100000162A07D84FF0E023D3F8F03DD907EED5E4
:1010100000BEECE7134C8B7884F82D300D7804F18A
:101020002E0302220093114604F12F032844FFF7F8
:1010300071FE38B94FF0E023D3F8F03DDA07D6D58A
:1010400000BED5E794F82F001F222146FFF796FD3A
:1010500030B94FF0E023D3F8F03DDB0700D500BEF8
:101060001720C5E7EC11002013B5930800EB8303AC
:10107000984209D112F0030204D00B68019301A930
:10108000FFF7F2F802B010BD0C6840F8044BEFE730
:10109000930813B501EB8303044699420BD112F078
:1010A000030206D0002301A80193FFF7DDF8019B9E
:1010B000236002B010BD51F8040B2060EDE7000082
:1010C00013B5124B9889D98993F90040421A92B20C
:1010D000402A28BF4022002C0EDA884212D099689C
:1010E0000B480192FFF7C0F80949019A802002B02D
:1010F000BDE81040FFF742BD88424FF0000003D129
:101100000021F4E78020FBE70149F0E7FC00002024
:101110003C12002070B50446164D00680B4661680D
:10112000AB602E4603C60021E981E1888A4228BFD0
:101130000A46AA81E18881B152B14BB94FF0E02251
:10114000D2F8F02DD20701D4002070BD00BEFBE71D
:10115000FFF7B6FF28B10120F7E72078FFF7BEFDC3
:10116000F8E74FF0E023D3F8F03DDB07ECD500BE05
:10117000EBE700BFFC00002070B5137803F01F05FB
:10118000012D0846144601D000204CE091883D4ACC
:101190001678C9B28E42F7D113F060031ED0202B0F
:1011A000F2D16378013B0A2BEED801A151F823F06C
:1011B00015120008551200085F1200088911000876
:1011C0008911000889110008891100088911000897
:1011D00029120008371200086912000808B101201E
:1011E00021E06378062BCFD163881B0A212B09D11C
:1011F000D2F888100029C7D020460A78BDE8704090
:10120000FFF788BF222BBFD1D2881F492046FFF7A6
:1012100081FFE4E70028E2D14FF0E023D3F8F03D6E
:10122000DB07B1D500BE70BD0028D8D1E288402AC6
:10123000AAD81649EAE70028D1D16188144B090AD7
:1012400051711BB1AFF3008000289DD02046FFF7FD
:101250004FFDC4E70028C2D10E490122D6E700287D
:10126000BDD10D490122D1E70028EFD00228B6D127
:1012700061880A4BC9B21171002BB0D00020AFF3C6
:101280000080ACE758010020F6380008A0010020DB
:10129000000000005D0100205C0100200000000053
:1012A00013B51446084661B9137803F06003202B88
:1012B00008D15378FE2B07D0FF2B03D11046FFF740
:1012C00017FD012002B010BD01238DF807300A4B35
:1012D0001BB1AFF300808DF807009DF807000028D0
:1012E000F0D001388DF8070001220DF107012046EA
:1012F000FFF710FFE5E700BF0000000070B50446EF
:10130000164652B90378012B07D1224B0822C3F8A5
:101310008820BFF34F8FBFF36F8F658AA28AADB26B
:1013200092B29542A5EB020338BFE2899BB238BF67
:101330009B1A228938BF9BB29A4229D1237B3BBB9F
:10134000F6B916E09B1A9BB29342FBD262896068A1
:1013500002FB0300FEF788FF6B1C9BB29D4202D884
:10136000228A9A4202D2E28913449BB2638276B9FE
:1013700001262378012B02D1064B08229A6036B948
:101380004FF0E023D3F8F03DDB0700D500BE70BD81
:101390002B46D9E700E100E01FB504284FF0000319
:1013A000CDE9013303938DF805001DD0052824D025
:1013B000032816D0154A1178C80712D5117863F39F
:1013C00000011170117863F34101117053701178AD
:1013D00063F3820111700E4B0122186801A9FFF717
:1013E0008DFF05B05DF804FB084B1A78D107F8D5DE
:1013F0001A7842F004021A70EDE704490A78D2071D
:10140000EFD50A7863F382020A70E4E77C120020C9
:10141000B412002008B5064B012205201A60FFF720
:10142000CFF9044A044B1188927819809A7008BD4C
:10143000E8010020C8370008E401002008B5074B88
:10144000022201201A60FFF7BBF9054A054BB2F8EA
:101450000310527919809A7008BD00BFE80100207E
:10146000C8370008E401002010B5194C227A32B1C7
:10147000184B04221A60BDE81040FFF7BDB923687D
:101480002BB3154B197861B11A70124B0322192036
:101490001A60FFF795F9114A114B1188927819805B
:1014A0009A70D4E900329A4211D30A4B04221A608E
:1014B000FFF7A2F9BFF34F8F0A490B4BCA6802F43A
:1014C000E0621343CB60BFF34F8F00BFFDE710BD59
:1014D00078130020E80100201C000020CE3700080F
:1014E000E401002000ED00E00400FA051FB500242F
:1014F00003921A46074BCDE901448DF804000720FA
:101500008DF805008DF80810186801A9FFF7F6FEA0
:1015100004B010BDB412002070B53722002105467A
:101520001048114EFEF7A2FF1022FF210F48FEF7D0
:101530009DFF1222FF210E48FEF798FF0D4814224E
:101540000021FEF793FF00242046FFF711F94368BE
:101550002846984733780134E4B20133A342F3DAE2
:1015600070BD00BF7C120020F80000207F12002018
:101570008F120020FC00002002488C220021FEF780
:1015800075BF00BF580100200020FFF7F5BF000025
:10159000024840220021FEF769BF00BFEC11002085
:1015A000024840220021FEF761BF00BFEC1100207D
:1015B0002DE9F04FB84FFB8A2DED028B5BBA9BB241
:1015C00008EE100A83B043B94FF0E023D3F8F03DA2
:1015D000DB0740F15B8100BE58E1B968B1FBF3F372
:1015E0009AB2002AF0D0BA6BD7F81150AB48A1EBF1
:1015F000020ABAF5805F9BB228BF4FF4805A2DBA19
:10160000B2FBF3F80021454403FB18285246FEF7CD
:101610002DFFB8F1000F1ED105F5FF2909F2F5697C
:101620009F4C4FEA0929A4F12006C245B3462FD8A2
:10163000B8F1000F16DB97F82E0040F01F8101462D
:1016400018EE100A4346424603B0BDEC028BBDE8DB
:10165000F04FFFF74BBF4FF0E023D3F8F03DDB072F
:1016600000D500BEBB68BA6B97F82E009B1ABB6210
:10167000012387F82C3042F20503BB87002387F84B
:101680003E3003B0BDEC028BBDE8F04FFFF75CBA13
:101690004FF4007200213046FEF7E8FEE5B9814BB9
:1016A00003F1380C18685968324603C208336345A1
:1016B0001646F7D118689B8893805523106084F8EC
:1016C000DE31AA2384F8DF31013508F5007809F509
:1016D000807904F50074A6E7B5F5017F2FD86B1E5D
:1016E000B3F5817F24BF6FF4817C05EB0C03ABB1B4
:1016F0006D4A12681B02120A033203F580704FF61E
:10170000FF7C032B03F1010114D99A4212D93180D5
:1017100088420B4606F10206F3D1D5E7F82204F819
:10172000202C4FF0FF3244F81F2C44F81B2C04F8F7
:10173000172CDDE79A4208BFA6F800C0E8E7B5F528
:10174000027F53D840F205239D42BDD1574AA4F1F0
:1017500015011378002B43D001320BF8013B8B4568
:10176000F7D1282304F8153C4F4B1B681B0A5B027A
:1017700000934F4B26464FF0020B45F27D32314627
:101780009C4606F10B0E9CF8000058B30CF1010CBE
:1017900001F8010B7145F6D14FF000004FF0000148
:1017A000B082D86871734BF2EC01F181328272829F
:1017B000F1823283A6F81AB0B0B10193FEF7C0FEF1
:1017C000019B45F27D320BF1010B1FFA8BFBBBF144
:1017D000050FF06103F1100306F12006CFD173E786
:1017E0002023BAE72020D3E70098ECE7314B9D4255
:1017F0003FF66AAF6FF402702B18012B14D82E4AF3
:101800002B01995800910846FEF79AFE009900288E
:101810003FF45AAFB0F5007F024628BF4FF4007284
:101820003046FEF721FD4FE71F4B1B684B457FF607
:101830004BAF224A44F8202C02F1144202F52C123C
:1018400002F602321B0A44F81C2C1D4AC4F8DC21A3
:1018500044F8083CA5F20B224FF4005344F80C2C3A
:1018600044F8183C4FF48072164B44F8149C44F82A
:10187000102C44F8043C49462046D2E707491FFA99
:1018800088F2FFF77BF900283FF49EAE03B0BDEC71
:10189000028BBDE8F08F00BFEC110020EC010020AE
:1018A0000C02002031380008540100205C38000888
:1018B0009839000808010100141900085546320A39
:1018C000306FB10A575A75572DE9F04FB54C1E4687
:1018D00094F83030012B074697B0084600F0888115
:1018E000032B00F0BD824BBB94F82F308B4201D00C
:1018F00001200DE02AB91F2E03D12168AA4B99427D
:101900000BD04FF0E023D3F8F03DD80703D40020EC
:1019100017B0BDE8F08F00BEF9E7A44B23626368FF
:10192000C4E90932012384F83030A368C4E90D32D8
:10193000E27B282A23D13846FFF73AFE94F830306C
:10194000022BD5D194F82E00994B94F82F1000F06B
:101950007F0203EB420202EBD0122032527995074C
:101960000AD401F07F0203EB420303EBD1132033CF
:101970005B799A0740F1B78200231A466CE22A2A63
:1019800002D1FFF775F9D9E74BB1217BC90906D11F
:1019900088499AB2FFF7F2F80028CFD11BE1252A37
:1019A0000AD8192A1DD8032A00F0D780122A4FF02E
:1019B00000015ED0002A3CD094F83C10002940F091
:1019C0009F821E2A1CBF42F20502A2879BB216BF4D
:1019D0004FF6FF720A4684F83E109A4228BF1A4614
:1019E00027E0A2F11A0100200B29E5D801A555F83E
:1019F00021F000BF171B0008FD1E0008B9190008E0
:101A0000B9190008B9190008B9190008B91900086E
:101A1000B9190008B9190008491A0008B9190008CD
:101A2000251A0008634B64494FF40032C3E90012E1
:101A300008220020626384F82C00002A40F0C8804D
:101A4000022384F8303079E708220D908DF8372092
:101A50005A4A0E920222ADF83C000DAB8DF83C20A4
:101A6000ADF83E2093E80700524D85E807000C22B0
:101A7000DFE78023CDE90D114FF020358DF83530AB
:101A800010220223202111A88DF836308DF837302E
:101A9000CDE90F55FEF7EAFC494A159510685168E3
:101AA000127A06AB03C31A70464B09AA03F1080C5D
:101AB000164618685968154603C5083363452A4613
:101AC000F7D1998818689B792860A980AB7106A81E
:101AD0003D4B0593FEF734FD06A902460FA8FEF71D
:101AE000C3FB3046FEF72CFD3146024611A8FEF737
:101AF000BBFB05A8FEF724FD0DAD024605A915A800
:101B0000FEF7B2FB0FCD2B4E0FC60FCD0FC62B68C5
:101B1000336024228DE79DF83620607B03238DF807
:101B20003430002363F306028DF835308DF83730FA
:101B3000264B8DF8362073B1AFF300809DF8363018
:101B400080F0010060F3C7138DF83630194B0D9A01
:101B50001A6004226DE70120F0E794F83C5094F8F5
:101B60003E6094F83D80122200210DA8FEF77EFC15
:101B7000F0238DF8343005F00F050A238DF8365028
:101B80008DF841608DF83B308DF840800DAD0FCD64
:101B9000084E0FC62B6833800023A38784F83E309D
:101BA000122246E7EC11002055534243555342534D
:101BB0007C120020EC010020000101080001010955
:101BC000D1370008DA370008312E3000000000005D
:101BD000A3689A4208D94FF0E023D3F8F03DDB0721
:101BE0007FF595AE00BE93E6A84994F82E00D1E6A5
:101BF000257BED0928D1E37B2A2B19D1DFF8C0B270
:101C0000AE42ABF1200336D8002D80F21481A368D8
:101C1000A26B9B1AA362012384F82C30022384F860
:101C2000303042F20503A387002384F83E3085E676
:101C30001E2B1CBF42F20503A3874FF0000318BF01
:101C400084F83E5084F82C30A36B1E44636BA6636B
:101C50009E42BFF4F5AEE37B282B3FF46CAE2A2BFB
:101C60003FF48FAE4FF0E023D3F8F03DDE077FF571
:101C700065AE00BE62E65BF8202C8548824240F0EB
:101C800093805BF81C2C83498A4240F08D80DBF8FE
:101C9000DC218148824240F087809B6823F4FF5317
:101CA00023F01E039B049B0CB3F5005F7CD15BF813
:101CB000043C7A4A934277D15BE9059359461A4628
:101CC00048460293FEF7A0FA002844D0744B1A69E4
:101CD000002A05DA734A5A6002F188325A601B6999
:101CE0007148724900224FF0006350F8048B9A4605
:101CF0004344994511D26E484FF0010C835C00F8C3
:101D000002C07AB1ABB91846804512D950F80A30F2
:101D1000013340F005810430F6E70132182A01D082
:101D20008B42E2D94FF0E023D3F8F03DDB0700D53A
:101D300000BEDFF86CA1CDF804B04FF00008029BA4
:101D4000434503DD5B4B1A7E012A3AD1544A13699D
:101D500043F0004313615BF8082C2AB3564B186814
:101D6000824207D044F2630C624500D808B14FF0BC
:101D7000FF321A605BF80C2C44F26300824213D8E5
:101D800002F0070C03EBD202012092F809E000FAFE
:101D90000CF010EA0E0F5FFA80FC05D14CEA0E0041
:101DA00050725A6801325A6005F500750BF5007BD8
:101DB00026E752F80A300133B4D104329045F8D8FE
:101DC000B7E7019B53F8042B01933A4B0392012090
:101DD00018764CF25030FEF7E1FDF0B9DAF8100059
:101DE00020F44070CAF81000DAF8100040F40070D7
:101DF000CAF81000DAF8100040F00100CAF810002C
:101E0000039A48F809204CF25030FEF7C7FDDAF883
:101E1000102022F00102CAF81020264B00221A7668
:101E2000002893D14FF0FF30FEF7B8FD00288DD188
:101E300008F1040883E7AE427FF706AF721B45B195
:101E4000A36B124801922B444119A363FEF7A6FA33
:101E5000019A94F82F1000233846FFF747FB47E517
:101E600094F82E308B427FF469AD0D2E7FF466AD71
:101E7000E37B282B26D02A2B31D0104B3BB3607B41
:101E800004F10F01AFF3008021E000BFEC0100205E
:101E90005546320A57515D9E306FB10A575A7557F1
:101EA000003C024023016745C8390008FFFF0308D2
:101EB000A61B0020C01B002078130020000000009B
:101EC0000C020020254B13B1607BAFF30080002390
:101ED000234994F82F0084F830301F225AE5607BA4
:101EE000FFF7C2FAF3E703231E4984F830300D22CE
:101EF000FEF744FE00287FF4FBAC6CE6002298E578
:101F000000226263012284F82C20022284F830200F
:101F1000002B3FF413AD94F82E00FEF715FE0DE5EF
:101F2000114B186920F440701861186940F4007072
:101F30001861186920F0F8001861186940EAC200B9
:101F400040F0020018611A6942F480321A614FF0C1
:101F5000FF30FEF723FD002230E700BF0000000045
:101F6000EC1100200C120020003C02402DE98048BA
:101F700099B0234B00210A911A6C42F080521A64E6
:101F80001A6C02F080520A920A9A09911D490A6855
:101F900022F4404242F400420A600A6802F44042DD
:101FA0000992099A9A6802F00C02042A07D09A68EA
:101FB00002F00C02082A2DD15A6857022AD5104B7C
:101FC0001B680F4B9A6802F00C02082A00F03C8153
:101FD0000D4A002111660D4A106819688D0100F143
:101FE0002D810B495960084B01211966106804497D
:101FF0000B689C011CD413681B1A022BF8D917E03C
:10200000003802400070004000004742E01B002002
:10201000103041041A68924942F480321A60914AA1
:1020200010680B689E03CCD413681B1A642BF8D974
:102030008D4B1A6812F00E0F00F00881884CA368CF
:1020400043F4E053A360A36843F46043A360A36830
:1020500023F0F003A36023689B0100F123818049F2
:1020600082488B6803F00C03082B00F0AD81804B95
:102070007B4903608B687F4A7F4D804CC3F3031319
:102080000026D25C0368D3400360FEF7B5FB0896D8
:102090000B6B43F001030B630B6B03F0010308931D
:1020A000089B07960B6B43F002030B630B6B03F06B
:1020B00002030793079B06960B6B43F004030B6325
:1020C0000B6B03F004030693069B05960B6B43F022
:1020D00008030B630B6B03F008030593059B4FF498
:1020E000005C0123CDE913C3159313A902232846ED
:1020F0001693FEF789FB4FF00053AB612268604BEB
:102100009A420ED119202660FEF75AFB5D4A5E4BBB
:10211000118892789A7019805C4B04221A60FEF73D
:102120006BFB5B4B5B4A5968914240F266815A688F
:1021300003F580239A4200F26081574B216899424F
:102140004FF0000340F054815448236000210127E0
:102150000F264FF0020C4FF0030E07FA01F333F491
:10216000005248D121F0030202F1804202F59C3274
:1021700001F00304A400D2F8089006FA04F809EA72
:1021800008090CFA04F4A1456FEA03030FD10468AF
:102190001C40046044681C40446084681C408460A7
:1021A000C4681C40C460946824EA080494602A68E7
:1021B0004C000EFA04F422EA04022A60CA089200D3
:1021C00002F1804202F5023201F00708D2F82090B5
:1021D0004FEA880806FA08F829EA0808C2F82080B9
:1021E000EA6822EA0402EA606A6813406B60AB683E
:1021F00023EA0404AC6001311029AED1184B1A6BEC
:1022000022F001021A631A6B22F002021A631A6B9F
:1022100022F004021A631A6B22F008021A634FF0CC
:10222000E02300221A615A619A611D4A184B93609B
:102230001A6882F308885B681847FEE71168091A74
:1022400002297FF6CAAEF3E65B68F1E602221A7055
:102250001B6803F00F0393423FF4F0AEFFE600BFAC
:1022600000380240E01B0020003C0240000000203B
:102270000024F4002138000800080240FCFF002080
:10228000B40AE8F5CE370008E4010020E801002098
:1022900000000108FFFF0008EF6926F0003C014044
:1022A00000ED00E0A368AD4A23F0030343F002030E
:1022B000A360116841F28830A36803F00C03082B77
:1022C00054D1A74B1A6802F00F02022A53D8A36810
:1022D00023F4E05343F48053A360A36823F46043E2
:1022E000A360A36803F00C03082B4DD09D4B9E4ABE
:1022F0009E499268C2F30312885C9D4AC3401360F2
:102300004FF47A72B3FBF2F3013BB3F1807FBFF479
:10231000A6AE984C984821684FF0E02207255361FB
:10232000F02380F823300F294FF0000393611561EB
:102330003FF695AEC268C2F30222A81A042802F141
:10234000040528BF0420062D98BF1A464FF0FF331E
:1023500003FA00F388BF033A21EA030393401B0109
:10236000854ADBB282F82330216078E613685B1A75
:102370008342A1D973E602221A701B6803F00F038F
:1023800093427FF46CAEA2E762686368754813F409
:10239000800315BF61686468C1F38811C4F38814B1
:1023A00018BF002302F03F0214BFA1FB0001A4FBF1
:1023B0000001FEF733F96C4B5B68C3F30143013353
:1023C0005B00B0FBF3F392E74B684C684B68654ADF
:1023D000C3F3881304F03F04B2FBF4F25343624AA0
:1023E0005268C2F3014201325200B3FBF2F33FE6FE
:1023F000624A914240F0E48023604FF4C0530024CD
:102400005F481393032602230A2513A9CDE9143448
:10241000169617954FF48067FEF7F6F91223CDE96B
:1024200013730123CDE915361795FEF7EDF94E4BE1
:102430005A6B42F080025A630B945A6C42F4804209
:102440005A645B6C4FF0A04203F480430B930B9BE8
:10245000936B43F4001393634A4B4FF480221A604A
:10246000494B1C78002C64D1372221464748FDF7A0
:10247000FDFF474A138954825B009BB2591E5B42A1
:10248000D381444B94821A60434B118223B1434859
:10249000AFF30080424B1860404D00242046FEF709
:1024A00067F9036898472B780134E4B20133A342FB
:1024B000F4DA4FF0A043DA6842F04002DA601A69B9
:1024C000002AFCDA1A6942F001021A614FF0A043B7
:1024D0001A6912F00102FBD1C3F8002E5A6959693A
:1024E0000A435A619A6942F006029A612D4A1168BC
:1024F00041F004011160116821F0030111601168BD
:1025000041F003011160996B41F48031996398693E
:10251000254901439961996841F001019960536827
:1025200023F002035360214B08229A60164A0123CC
:1025300013701F4B1F4D022201201A60FEF740F955
:102540001D4A1E4BB2F80310527919809A700E4B37
:102550001B780193002B40F08180FEE7E01B0020F8
:10256000003C02400024F4000038024021380008FA
:1025700000000020EC00002000ED00E0EF6916F004
:102580000000024054010020B31200207C12002001
:1025900004000020B412002000000000F800002019
:1025A000F4000020000800501038008000E100E036
:1025B000E8010020FC000020C8370008E4010020EA
:1025C000A84E226001203360FEF7FAF84FF4005362
:1025D000AB613368B3F5FA7FFBD3FEF70DF94FF02B
:1025E0000053AB610023AFE5891A89B28A42FBD957
:1025F000628963680CA802FB0131FDF735FE019A80
:10260000A38A99B212FA83F39BB2994202D8218A23
:10261000994202D2E1890B449BB2A3822378012B19
:1026200002D1914B08219960002A90D09DF8313059
:10263000013B072B00F20983DFE813F008003F009D
:102640007F035F036A034600E70282039DF83000C0
:10265000FEF762FF854B9DF834209A70844B1C680E
:102660002378012B07D1804B0822C3F88820BFF3C1
:102670004F8FBFF36F8F638AA18A98B289B2884265
:1026800038BFE289A0EB01039BB238BF9B1A2289B5
:1026900038BF9BB29A420CD2904204D3268A831A46
:1026A0009BB29E4203D2E3891344C31A9BB2A38216
:1026B0001346002B9AD11A46A2E79DF83000FEF788
:1026C0002BFFFEF7BBFEC9E7684C9DF834802378EA
:1026D0009DF8309043F00103237094F825306FF398
:1026E000000384F8253094F825306FF3820384F8D2
:1026F000253094F826306FF3000384F8263094F8E0
:10270000263008F060016FF3820384F826306029D8
:102710004FF000032B6108D14FF0E023D3F8F03DD8
:10272000D90740F1D88100BED5E140290CD1514AEA
:10273000002A00F0D0812A6119460DAA4846AFF35D
:10274000008000288AD1C6E108F01F08B8F1010F07
:1027500000F0A381B8F1020F00F0C681B8F1000FBC
:10276000DAD1202911D19DF838300F2B00F2B38136
:102770002344D878FDF7FCFF0146002800F0AB8128
:102780000DAA4846FEF714F8DBE70029C4D19DF8EE
:102790003530092BC0D801A252F823F0852A000851
:1027A000752A000819270008632A0008192700085D
:1027B000C527000845290008192700080528000832
:1027C00017280008DDE90D01002385E80300C5E9AD
:1027D000023329499DF836200868120102F4FE628E
:1027E00002430A60254AC2E904331383244A538012
:1027F000012218461146FEF72FF9237843F0020311
:1028000023702BE763788DF84C30012213A90DA8B3
:10281000FEF780FC22E79DF836300293637803F0E0
:10282000FF07002B75D1029B002B72D02378154E29
:1028300023F0300343F0100323707378042B23D06C
:102840004FF0E023D3F8F03DDC077FF565AF00BE25
:1028500062E773780B2B05BF337837460027F618ED
:10286000EBE700BF3812002000E100E07C120020FE
:10287000B41200200000000000080050E41B0020FB
:10288000A21B0020AD380008A44B9A1B92B24FF057
:10289000000BA34B1B785FFA8BFA01335345CFDB58
:1028A0005046FDF765FF31468368039248469847D6
:1028B0000BF1010B039A80460028EAD00828BFD903
:1028C0008242BDD3B378E218D178FF29B8D182F81B
:1028D00003A027BB324600235178052908D1907800
:1028E00000F07F0104EB410101EBD01181F813A04E
:1028F00011780B449BB298450A44EDD8884B1B785D
:1029000001339A4546449BDC844B9E42A1D3FEF79B
:1029100081FD029B63700DA8FEF7EAF99EE6B87888
:1029200098428DD13A7973799A4289D1FB780430F3
:102930005A1E002BD2B2514608BF00222044FDF798
:1029400095FDC7E7BDF836301A0A013A0E2A00F2A3
:10295000C280DFE802F008171AC0C07BC0C0C0C048
:10296000C0C0C0C00E006F4912220DA8FEF7D2FBF6
:10297000E7E66D4B002B00F0AE80AFF3008042889D
:102980000146F2E769494022EFE713F0FF0319D04F
:10299000032B24D0062B00F29E80654A52F8234078
:1029A0002046FDF7CDFDC2B21F2A28BF1F22614B72
:1029B0002046A118884203F1020308D010F8014B09
:1029C0001C80F7E75B4B40F209425A80012201323A
:1029D000D2B25849520042F440730B80C5E7564AC0
:1029E000544C07CA0FAB83E807004FF0000C534A62
:1029F00013AF02F1100E106851683E4603C608324C
:102A000072453746F7D113F8016B18A906F00F028B
:102A10000A440DF14C0812F8142CA280474A1068A1
:102A20005168474603C708327245B846F7D118AA1D
:102A300002EB16160CF1010C16F8142C6280BCF196
:102A40000C0F04F10404D2D11822C0E73C4B002B38
:102A500041D0AFF30080014600283FF45DAE02781C
:102A600083E7BDF83630012B35D1237843F00803D6
:102A7000237050E7BDF83630012B2CD123786FF34B
:102A8000C303F5E72378C3F340129B0803F0020366
:102A90001343ADF84C300222B8E69DF838300F2BC6
:102AA00019D82344D878FDF763FE014698B10DAAE2
:102AB0004846FDF77DFE00287FF4D0AD9DF8343008
:102AC00013F0600307D19DF835200A2A3FF49BAE2E
:102AD0000B2A3FF420AF1B4A136843F40013136022
:102AE0008020FDF7DFFDB9E59DF838B00BF07F06DB
:102AF000082E3FF611AE04EB460202EBDB124FEA62
:102B0000DB13D07C0293FDF733FE7700029B8246F5
:102B1000D1B10028DFD00DAA014632E6E438000822
:102B2000F8000020E438000800000000A438000885
:102B3000283A000810010020107AFF1FE93700082A
:102B400000000000000B00509DF8351001F0FD0062
:102B5000012807D000297FF4DFAD92F82530C3F3B8
:102B6000400396E7BDF8362032BB012949D17601F2
:102B700006F1A0468BB3D6F8002922F40012C6F85D
:102B80000029D6F80029C2F38142023A012A05D869
:102B9000D6F8002942F08052C6F8002927443B4469
:102BA00093F825206FF3410283F8252093F8252020
:102BB0006FF3000283F82520BAF1000F3FF44EAD09
:102BC0000DAA51464846FDF7F3FD00232B6194F80A
:102BD0002630D8073FF542AD9DE6D6F8002B22F40B
:102BE0000012C6F8002BD6F8002BC2F38142023A3D
:102BF000012A9EBFD6F8002B42F08052C6F8002B67
:102C0000CCE75846FDF7A0FFD6E79DF83410504BAF
:102C100001F07F0403EB440303EBD113CF0993F8D6
:102C200025006FF3000083F8250093F825006FF36B
:102C3000820083F82500002C4AD12B789DF8306063
:102C40000E9CB7EBD31F18D044B14FF0E023D3F85C
:102C5000F03DDB077FF502AD00BEFFE43D4B1BB14D
:102C600029463046AFF300802B69002B3FF4F6ACC9
:102C70002A46022130469847F0E495F90030002BAF
:102C800007DBA86800283FF4E9AC33492246FDF78A
:102C9000EBFAAA68EB8922442344AA60EA889BB233
:102CA0009A42EB8101D03F2C0FD82B6933B9287899
:102CB000FEF714F800287FF4D1ACC6E72A460121BC
:102CC000304698470028F2D105E7FEF7F9F9F1E719
:102CD000D87CFDF74DFD40B94FF0E023D3F8F03D2F
:102CE000DA077FF534AC00BE31E404690E9B9DF831
:102CF00035209DF83000A047B0E4184B002B3FF47E
:102D0000ADAC134B1878C0F3C000AFF30080A5E45E
:102D1000134B002B3FF4A2ACAFF300809EE4FDF711
:102D200027FD436913B19DF830009847013433788B
:102D3000E0B201338342F2DA90E40A4E0024F6E76F
:102D40000D9B002B3FF48AAC0E98984786E400BF99
:102D50007C120020000000003C1200200000000057
:102D600000000000F800002070470000134A1368BC
:102D700001331360124B1B68022B0DD8E3B11368AB
:102D80001268DBB2D20544BFDB43DBB20D4A33B17C
:102D90004FF4005393617047032B03D070474FF0FB
:102DA0000053F7E7136813F0010F064B14BF4FF4FD
:102DB00000524FF000529A61704700BF3812002055
:102DC000E8010020000802402DE9F04F4FF0A04537
:102DD0008BB06C69E60440D5874E4FF480536B612D
:102DE000802200213046FDF741FB844B00221A70FF
:102DF000834B1A6842F000621A601A6A42F000625D
:102E00001A621A6C42F000621A641A6E42F0006292
:102E10001A667C4AD16941F00111D161516941F0D2
:102E200009015161116941F00901116137226A629A
:102E3000754A10211180754A7549AA620A6822F004
:102E400003020A604022728372811A6942F0C04212
:102E50001A61AB6943F44023AB61A00424D54FF061
:102E6000A0434FF400525A61664A926812F0060F6E
:102E7000DA6808BF022122F4705218BF0021DA601C
:102E800000294ED0DA6842F41052DA600023CDE90E
:102E9000073309935F4B8DF82010012218688DF8D5
:102EA0001D2007A9FEF72AFA220507D54FF0A043F7
:102EB0004FF400625A610420FEF76EFA002C07DA24
:102EC0004FF0A0434FF000425A610520FEF764FA2C
:102ED000630708D54FF0A0456E68770702D502203A
:102EE000FEF75AFA6E60E50640F115814FF0A042F8
:102EF000DFF804B1936923F0100393614FF0A0430E
:102F00001E6AC6F34343013B06F00F07052B00F290
:102F1000D981DFE813F0D9004200D900C601D701FA
:102F2000D0013D4B3D4A1B68934226D23C4A934216
:102F300025D83C4A934224D23B4A934223D8A2F557
:102F4000DB12A2F5BA5293421FD8A2F5B712A2F52E
:102F5000587293421BD8354A93421AD2344A93424C
:102F600019D2344A93422CBF0E230F234FF0A040B6
:102F7000C26842EA8323C36088E70623F6E7072393
:102F8000F4E70823F2E70923F0E70A23EEE70B232F
:102F9000ECE70C23EAE70D23E8E70BEB4713C6F356
:102FA0000A16D3F804907801B9F1000F00F05281AD
:102FB000002E74D0B9F80E3099F80800B9F8041052
:102FC000B9F806209BB20093B9F810309BB2A8BBA9
:102FD00000989842A0EB030438BFB9F80A30A4B2B5
:102FE0003CBFE41AA4B20C1BA4B2B44228BF3446BE
:102FF000DFF844A02FE000BFE41B00202C120020CB
:10300000000B005000080050F000002030011000BC
:1030100000090050B4120020000000200048E80120
:10302000DF9DA30100366E013FA44C0180730601B1
:103030000024F400C0E1E400001000508E42C0F013
:10304000C980A6EB010A02FB0AFA0AF1A04A0AF5B6
:10305000805A00930C46009B8B4280F0BD80A1EB10
:103060000308D9F800001FFA88F8444502FB030062
:1030700000F2B58014FB02F292B25146FDF7F4FF64
:10308000009B1C44A4B2A34203D8B9F80C30A3425D
:1030900003D2B9F80A301C44A4B2A9F80E400BEBD5
:1030A00047125389B3420FD97B0103F1A043D3F8F0
:1030B000101B13895B1A9BB213812FB9AC4A11887C
:1030C00017805B1AABF808304FF0A0435C6914F02E
:1030D00010007FF413AFA7490B78B3B1A64A538D04
:1030E0005589AB4238BF2B46B2F84A50B2F86A2035
:1030F000AB4238BF2B46934238BF13469B085B0058
:103100004FF0A0421733536208704FF0A04293690A
:1031100043F010039361250300F1DD80600356D571
:10312000DFF854B24FF00009944B01229B6902FA78
:1031300009F018425FFA89F142D04FEA491808F1C4
:10314000A04808F51068D8F80830DE070ED5C8F892
:103150000820B9F1000F40F00281854B5B88002BFD
:1031600000F0FD8011464846FDF776FCD8F808309F
:103170001D0625D5814B01225B6B02FA09F21A422A
:1031800002921DD0D8F810304FEA093AC3F3C94370
:103190000AF1A04A03930AF5805A00230193BDF86F
:1031A0000430039A9A4200F2F180D8F81030C3F349
:1031B00012032BB9714A0299536B23EA010353633B
:1031C00009F10109B9F1040F0BF1200BACD10BB0DF
:1031D000BDE8F08F34460BE75B1A9BB23CE718FB67
:1031E00002F81FFA88F8651A1D4428F003039BB201
:1031F00015FB02F295B251461A4603930290FDF771
:1032000033FF18F0030822D0C8F1040292B2AA4298
:10321000134628BF2B460193ED1ADDE90203DAF8C5
:103220000020079207A942461844FDF71DF8D9F877
:103230000030019A07A941441846FDF715F8019A94
:10324000ADB21044002D3FF41BAF2A4615E7D9F864
:103250000000F7E75BF80030494CB20803EB82024C
:10326000934214D116F00301F4B20AD0444B1B6808
:103270001370A40744BF1C0A5470032904BF1B0C1D
:1032800093705BF8003033444BF8003007E7216857
:1032900019700D0A5D700D0C090E9D70D970043304
:1032A000DEE77F0107F1A047D7F8103B43F0C043AA
:1032B000C7F8103B08E7324A324B116819601268B0
:1032C0005A6001E74FF0E023D3F8F03DDE077FF5C9
:1032D000FBAE00BEF8E6284FDFF8A090DFF890A024
:1032E000DFF8A0800025D9F8181005F1100301229D
:1032F00002FA03F30B425FFA85FB23D06E0106F15D
:10330000A04606F53066B36819070ED50823B360EA
:1033100098E803004FF4C06307930AAB03E9030086
:10332000194B07A91868FDF7E9FFB368DB0709D552
:103330000122B26065B9BAF800304BB1294628467F
:10334000FDF78AFB0135042D07F12007CBD1E5E617
:103350003A89012359460020FEF7C8F8F2E7BBF886
:103360001820012341F080010020FEF7BFF8FDE6A0
:10337000A21B00202C120020E41B0020000800509B
:103380000010005030120020B4120020D8F8103085
:10339000BBF81A2059499BB29A4228BF1A46D8F85E
:1033A000183001EA83039A423FF6FFAEDBF814506F
:1033B000002D00F08280E9892B8A89B29BB2994264
:1033C00038BF6889A1EB0307BFB238BF3F1AA8888E
:1033D00038BFBFB2B8420ED2814204D3AC890B1AB7
:1033E0009BB29C4203D26B890344C91A8BB22B82D5
:1033F0002B8A07469BB297B1974228BF174698423F
:103400001ED9C61AEA882968B6B2B74202FB031170
:1034100019D817FB02F292B25046FDF739FE2B8AFB
:1034200017FA83F79AB2BFB2BA4202D8AB89BB424D
:1034300002D26B891F44BFB22F82019B0133ADE6DC
:103440001B1A9BB2DBE716FB02F6B6B23C1A1C4411
:1034500026F003039BB214FB02F294B250461A46C4
:10346000CDE90413FDF714FE16F0030623D0C6F1D0
:10347000040292B2A242134628BF23460093E41AE4
:1034800000230793DDE904133246194407A8FCF72B
:10349000EBFE07AB2968009A04919819FCF7E4FE4B
:1034A000009B04991944079BCAF80030A4B2002C71
:1034B000B5D02246B0E72968F9E7DBF8103091086B
:1034C00003EB8101994214D112F00300D4B20AD067
:1034D000A407197848BF1988032804BF9B7841EADC
:1034E0000341CAF80010DBF810301344CBF8103059
:1034F000A3E753F8040BCAF80000E3E7FCFF03005E
:10350000054BD3F8882042F47002C3F888204FF0AE
:1035100000629A60704700BF00ED00E02DE9F04FB7
:10352000099E88468E46154604461946002B40F0F3
:10353000C7804245B2FA82F746D94FB1C7F1200C95
:1035400008FA07F320FA0CFCBD404CEA030EBC401D
:103550004FEA15481FFA85FCBEFBF8F9220C08FB60
:1035600019E309FB0CFA42EA03439A4528D9EB1800
:1035700009F1FF3004D29A4502D9A9F102002B4487
:10358000A3EB0A03A4B2B3FBF8F208FB123302FB6D
:103590000CFC44EA0344A44514D92C1902F1FF336E
:1035A00003D2A44501D9931E2C44A4EB0C0443EA96
:1035B00000401EB1FC40002334607360BDE8F08F12
:1035C0004846DDE71346F0E702B9FFDE8FBBA8EB04
:1035D000020301214FEA154EAAB2B3FBFEFC200CF8
:1035E0000EFB1C330CFB02F840EA0343984563D9F9
:1035F000EB180CF1FF3004D2984502D9ACF102006F
:103600002B44A3EB0803A4B2B3FBFEFC0EFB1C335C
:103610000CFB02F244EA0344A2424FD92C190CF1EC
:10362000FF3304D2A24202D9ACF102032C44A41A03
:10363000BDE7C7F1200C28FA0CF908FA07F320FAC5
:103640000CFCBD404CEA03024FEA154EABB2B9FB8D
:10365000FEFC110C0EFB1C900CFB03F841EA004031
:10366000804504FA07F423D928180CF1FF3104D25D
:10367000804502D9ACF102012844A0EB080092B2C7
:10368000B0FBFEFC0EFB1C000CFB03F842EA0043FF
:1036900098450FD9EB180CF1FF3204D2984502D9A6
:1036A000ACF102022B44A3EB080342EA014191E78B
:1036B0006146E2E76246F6E76046A2E76346B6E7A0
:1036C000434505D90EB1C6E900080021084675E753
:1036D000B3FA83FCBCF1000F10D1434501D3824201
:1036E0000AD8841A68EB030301209E46002E68D096
:1036F000C6E9004E002161E76046F7E7CCF1200EF5
:1037000003FA0CF322FA0EF41C4320FA0EF108FA25
:103710000CF328FA0EFB19434FEA144902FA0CF590
:10372000BBFBF9F8A3B209FB18BB0A0C08FB03FAB0
:1037300042EA0B42924500FA0CF73ED9A21808F172
:10374000FF3004D2924502D9A8F102002244A2EB34
:103750000A0289B2B2FBF9F809FB182208FB03F34D
:1037600041EA024293422AD9A21808F1FF3104D259
:10377000934202D9A8F10201224441EA0040A0FB91
:103780000598D21A42454B46414602D306D14F45D1
:1037900004D2B9EB050368EB040101388EB1FC1AC1
:1037A00062EB010707FA0EFE24FA0CF34EEA03035C
:1037B00027FA0CF7C6E900379CE74046C7E74146C1
:0837C000DBE73146FAE60000E8
:1037C80000FF00FF0000CC66004164616672756905
:1037D800740055463220426F6F746C6F6164657275
:1037E8000030313233343536373839414243444575
:1037F800460059525F53545544494F004B425F4667
:103808004D00554632004846322048494400484653
:103818003220576562555342000000000000000046
:10382800000102030406070809EB3C9055463220C4
:103838005546322000020101000240000000F80253
:1038480001010001000000000009010100800029B9
:103858004200420059524B425F555044415445463C
:103868004154313620202009040000009115000839
:10387800A1150008E50F0008A1120008C9180008E2
:10388800000000008915000879150008410F00089C
:10389800791100080D0C0008000000000902400022
:1038A800020100A0320904000002080650040705BE
:1038B80001024000000705810240000009040100E0
:1038C800020300000509211101000122200007055B
:1038D800020340000A0705820340000A12010002A1
:1038E800000000409A235D00000101020301060068
:1038F800FF0901A1010902150025FF7508954081FE
:10390800020903150025FF750895409102C03C2166
:10391800646F63747970652068746D6C3E0A3C68E6
:10392800746D6C3E3C626F64793E3C73637269707F
:10393800743E0A6C6F636174696F6E2E7265706C89
:10394800616365282268747470733A2F2F676974ED
:103958006875622E636F6D2F4F682D4D792D4D65FB
:103968006368616E6963616C2D4B6579626F617222
:103978006422293B0A3C2F7363726970743E3C2FA2
:10398800626F64793E3C2F68746D6C3E0A000000DB
:10399800494E464F5F554632545854001D0000208A
:1039A800494E44455820202048544D0016390008F7
:1039B80043555252454E54205546320000000000EF
:1039C80000400000004000000040000000400000EF
:1039D80000000100000002000000020000000200D8
:1039E80000000200000002000000020000000200C7
:1039F80000400000004000000040000000400000BF
:103A080000000100000002000000020000000200A7
:103A18000000020000000200000002000000020096
:103A28006F380008FA37000804380008901B002097
:0C3A38000A3800080E3800081638000894
:083A4400D8FAFF7F0100000029
:103A4C000024F40001000000B812002010000C004B
:103A5C000000E0FF1F000000000000000154696E30
:103A6C007955463220426F6F746C6F6164657220B9
:103A7C00302E352E322D6469727479202D2073749A
:103A8C002F636D7369735F6465766963655F663414
:103A9C00202876322E362E342D312D6732363135A4
:103AAC00653836292073742F73746D33326634780D
:103ABC00785F68616C5F6472697665722028763114
:103ACC002E372E39292074696E797573622028304F
:103ADC002E31302E312D3130392D673962336563FB
:103AEC00363962290D0A4D6F64656C3A2059525F64
:103AFC0053545544494F204B425F464D0D0A426F7B
:103B0C006172642D49443A2059524B425F555044DE
:103B1C004154450D0A446174653A204E6F7620324B
:103B2C003920323032310D0A000000001000000044
:040000050800065198
:00000001FF
