:020000040800F2
:20000000FC4F0020AD1E0008A91E0008A71E0008A71E0008A71E0008A71E0008000000009F
:20002000000000000000000000000000A91E0008A91E000800000000A91E0008A91E000884
:20004000A71E0008A71E0008A71E0008A71E0008A71E0008A71E0008A71E0008A71E000838
:20006000A71E0008A71E0008A71E0008A71E0008A71E0008A71E0008A71E0008A71E000818
:20008000A71E0008A71E0008A71E0008A71E0008A71E0008A71E0008A71E0008A71E0008F8
:2000A000A71E0008A71E0008A71E0008A71E0008A71E0008A71E0008A71E0008A71E0008D8
:2000C000A71E0008A71E0008A71E0008A71E0008A71E0008A71E0008A71E0008A71E0008B8
:2000E000A71E0008A71E0008A71E0008A71E0008A71E0008A71E0008A71E0008A71E000898
:20010000A71E0008A71E0008A71E0008A71E0008A71E0008A71E0008A71E0008A71E000877
:20012000A71E0008A71E0008A71E0008A71E0008A71E0008A71E0008A71E0008A71E000857
:20014000A71E0008A71E0008A71E0008A71E0008014B1960704700BFFC4F0020014B1868F9
:20016000704700BFFC4F002001F0F4B87047000010B540F2023001F034F940F2033001F0AD
:2001800030F94FF4417001F02CF9BDE810404FF4805300220121014800F0FEBF000801409E
:2001A00008B540F2172001F02AF94FF48051044801F014F9034B00BF013BFCD1024808BD82
:2001C0000008014000350C00CC2B0008002008B50249FFF7BDFF01F0B1FE00BF2A72823F00
:2001E00008B50020FFF7BAFF054B984205D000210846FFF7ADFF012008BD0020FCE700BFBB
:20020000EF6916F008B540F2023001F0EAF840F2033001F0E6F84FF4417001F0E2F8002079
:20022000FFF79CFF084B984205D100210020FFF78FFF012007E005498842F7D1002108460E
:20024000FFF786FF002008BDEF6916F02A72823F013100F0DFBE4FF0E0234FF48042C3F8C2
:20026000082D704701F0E8B801F0F6B82DE9F84304461546DFF85890DFF858808E1E0DB98C
:20028000012002E04C4502D90020BDE8F883D8F80030114FA34202D93B68A3420AD924F40C
:2002A0007F7020F0030000F580633860C8F8003000F032FF36F8021F2046023400F0F4FEEE
:2002C00034F8022C33883C609A42DDD1013DD6E7FFFF0108280000202C00002008B5FFF79A
:2002E000BAFF00F08EF9034B1A6882F308885B689847FEE700400008044B05481B681840B3
:2003000000F1604358425841704700BF004000080000FE2F2DE9F04790B0FFF7EDFF054671
:2003200020B1FFF75DFF08B1FFF7D8FFFFF71CFFFFF71EFFFFF766FF08B9002DF4D10024BE
:20034000182109A88DF82440FFF782FF09A800F00DFB00F019FB264B40220693254B07467D
:2003600005934FF4FA530493234B82210393234B00920293224B4FF001080193012300F025
:20038000CFFD384600F020FE4FF4FA76DFF87490DFF874A00134A642D4BF00200120FFF7A5
:2003A000E5FEB4F52F7F1ADBD9F8003046440133B6F52F7FC9F8003015DC092ED8BF4FF007
:2003C000020800F059F98DB1DAF8004074B940F6B833D9F800209A4201D9FFF7F7FE384623
:2003E00001F081F8D6E76FF00108EAE70024F6E725080008B9060008C0280008C6280008BA
:20040000D5280008300000202C0F002010B5044602F0EEF901462046BDE8104000F054B8A6
:20042000F0B58BB022B300221C2420FA04F303F00F0391B98BB9CCB1C2B9043C231DF4D1C4
:200440000AAB1A4400231F4802F8283CFFF7DEFF6846FFF7DBFF0BB0F0BD092B06DD373367
:200460000AAD154405F8283C0132E6E73033F7E7031E1ADA2D225B428DF800200DF1010124
:2004800005A8002207460A25B3FBF5F405FB14333033164600F8013B01322346002CF3D1B4
:2004A0004B1E013A0AD18A55D2E701D06946E7E730238DF801008DF80030C9E7B85C03F88A
:2004C000010FEEE7E1280008F8B5184C074626680D467318B3F5806F10D32346A6F58076E8
:2004E00043F8046B324604F58271184602F0CAF80021C6F58062304402F02AF92368EA1808
:20050000B2F5806F04D3BDE8F8400948FFF77EBF08482A463946184402F03EF8002321689E
:200520000D4425602C442371F8BD00BF34000020E4280008380000202DE9F34704460E46BF
:20054000EFF31087012383F31088DFF89080DFF890902546AA4615F8013B73B92046AAEB47
:200560000401FFF7B1FF1F48FFF750FFEFF3108387F3108802B0BDE8F087252BEAD1291B80
:2005800020460139FFF7A0FF2B7856F8040B642B01900AF1020415D007D8582B0BD0632B55
:2005A0000BD0252B16D0404615E0732B13D0782B0BD0702BF7D1012205E0012101A8FFF784
:2005C00083FFC6E70022114601E001220021FFF727FFBEE74846FFF719FFBAE7FC28000824
:2005E000FA280008F82800080FB407B504A951F8040B0191FFF7A0FF03B05DF804EB04B053
:200600007047704738B5154B154C1A682168154B1A604B1C20D0144B1A780AB100221A702A
:200620001248FFF7E1FF25684FF480622946104801F082FF68B129460E48FFF7D5FFFFF701
:2006400011FE4FF400720A492068FFF70FFEFFF70BFE4FF0FF33236038BD00BF3C080020ED
:2006600004000020380800200000002000290008380400200C2900080C4A08B5136801334A
:2006800013600B4A126832B1934204D3FFF7BAFFFFF79CFDFEE7074A126832B19B1A642B74
:2006A00003D9BDE80840FFF7ADBF08BD3C0800204008002038080020F8B50C464FF4007666
:2006C000054632460021204602F042F89DB922464F4B03F13C0153F8040B8B4242F8040BAB
:2006E000F9D11B881380552384F8FE31AA2384F8FF310020F8BD402D29D8691E1F2988BF05
:20070000A5F1210149B92346F02203F8012B4FF0FF32C4F801205A601A7240F203250B0283
:20072000C1EBC15103F5807004EB41241A1FB2F5007F03F1010206D2AB420CBF4FF6FF7124
:2007400091B224F8131090421346EFD1D1E7442D30D8412DCDD123462E4904F10B000A788D
:200760000AB3013103F8012B8342F8D128230225294EE372F06837462034B0B102F038F8EB
:200780002346E061658304F10B013A7882B1013703F8012B8B42F8D10135ADB2052D06F12E
:2007A0001006E7D1A5E72022DCE74FF48020E7E72022EDE7A5F14502012A0CD8164B03EBD8
:2007C0000213DD68284602F013F829460246204601F0E2FE8DE7473D2902B1F5003F88D204
:2007E0004FF480720D4BC4E90556236003F1144303F52C1303F602336360094B2261C4F8DB
:20080000FC3141F00063E36004F12000E0E700BF412900086C290008002A00085546320A21
:20082000306FB10A2DE9F0470C46454D686800F00100FFF79BFC2268424B9A4251D103F1D6
:200840001443626803F52C1303F602339A4248D1D4F8FC213C4B9A4243D1A3689A0403D53C
:20086000E1693A4A91423CD1DB07E1680DD42369B3F5807F09D8CAB23AB9354A914204D312
:200880000B4402F5E032934231D93248FFF7ACFEA3693149314E002B4ED02A68934206D07C
:2008A000B3F5197F00D20AB14FF0FF332B606369B3F5197F40D2012203F0070005EBD3036E
:2008C0001C7A82402242D0B204D16A682043013218726A60D5E900329A422DD333681E3391
:2008E0000B600020FFF742FC0020BDE8F0871C48FFF77AFEDFF86C80E768D8F8003027F4FE
:200900007F7626F003069E42D4F810A004F1200909D0FFF777FE4FF4806231461248C8F84F
:20092000006001F039FE1048C7F3090752464946384401F031FEABE7336803F5FA73CFE702
:20094000440800205546320A306FB10A7210E25E004000081E290008400800203C080020D5
:200960002F290008040000203804002010B50024044B01461C7020B11822184601F066FFCD
:20098000047610BD9C0800201FB5FFF709FC4FF480630393064B074A029304230193064B7E
:2009A00006490093064B00F065FD05B05DF804FBB6080020B32A00080C000020C02A0008C8
:2009C000AA2A00084878FE2804D0A0F1FF0358425841704701200349126808600021117013
:2009E000188070472C0F002037B504460C4D0D4B2979009302226B7900F079FD0A4B204608
:200A0000A97900930222EB7900F071FD7F2221212046064B03B0BDE8304000F05BBE00BF11
:200A2000B80C0020E90C0008B90D0008C509000870B50546A54CB0B945F25533A4F8623278
:200A400045F24233C4E91200A4F86432D4F82D3084F86102C4F86632A4F86A02A4F86C028B
:200A600084F86E02206594F838302A2B06D8192B11D80A2B38D9122B00F0A28042F20503E0
:200A8000A4F870320023C4E9123384F87232012384F86E3279E01A3B102BEFD801A252F806
:200AA00023F000BF8D0B00087D0A00087D0A0008370B00087D0A00087D0A00087D0A0008AF
:200AC0007D0A00087D0A0008590C00087D0A00083B0C00087D0A00087D0A0008730C000808
:200AE0007D0A0008B30C00080A2BC7D801A252F823F000BF370B00087D0A00087D0A0008A5
:200B00004F0B0008210B00087D0A00087D0A00087D0A0008A90B00087D0A00088B0C0008A8
:200B20009DBB4FF400722946694801F011FE684E63699D4205D30023A4F8703284F87232CE
:200B400023E028463146E36998470135F0E7E5B994F83C305E4AE3645E4B03F110061546E2
:200B600018685968083303C5B3422A46F7D11B882B8094F8703284F8623094F8713284F8CF
:200B80006C3094F8723284F86D3070BD002DFCD104230322E364A4F8602084F86250A4F8D0
:200BA0006A32A4F86C52F0E7002DEED1638F5BBA9BB2636594F83C30C4E916355B0245E0EE
:200BC000002DE2D12423E364434B414A03F12006154618685968083303C5B3422A46F7D1A8
:200BE00018682860A568284601F002FE08280246294628BF0822394801F0CEFCE568284692
:200C000001F0F6FD10280246294628BF1022344801F0C2FC2569284601F0EAFD0428024675
:200C2000294628BF04222F4801F0B6FC00232422A4F86C32A4F86A227EE7002DA5D163697F
:200C40001BBA23664FF4003363660823E364A4F8705284F8725298E7002D96D14FF0006332
:200C6000236663691BBA63664FF00213A3660C23ECE7002D89D1D4F83A301BBA6365B4F81C
:200C80003F305BBA9BB2A36598E7002D7FF47DAF94F83930628F1B0452BA03F4F81392B2D9
:200CA0001343636594F83C30C4E916355B02A3646BE7002D7FF469AFD4F83A301BBA6365E5
:200CC000B4F83F305BBA9BB2EEE700BFB80C0020180D00203B2B00084D2B0008200D00209F
:200CE000280D0020380D002070B5324C0E46236DE16C05468B42A26D21D262B1C3F3080378
:200D00004BB9606DE26DA36904F1600110449847E36D0133E365E179D4E913329B1A8B4274
:200D2000A8BF0B46C2F3080260329BB231462846224400F0FCFB236D0344236570BD3AB1B4
:200D4000E36D934204D10023E365636A03B1984794F860322BB90120FFF76AFE012384F8AD
:200D6000603294F86122C2F10D01002911DDE37902F262228B42A8BF0B4628469BB231466F
:200D8000224400F0D4FB94F86132034484F86132D4E70D2AD2D100234FF0FF32C4E912339F
:200DA000C4E91523E36584F828302365A4F86032C4E700BFB80C0020F8B5574C054694F807
:200DC00028200E46C2F11F07002F2CDC226DA16CA36D8A4240D3E16C8A4280F08B8073B124
:200DE000002A40F08180236A002B7CD1606DE26DA3694A4910449847E36D0133E365E1797F
:200E0000D4E913329B1A8B42A8BF0B46C2F3080260329BB228462179224400F088FB236D87
:200E20000344236517E0E3792932BB42A8BF3B4622449BB200F082FB94F828301844C0B27E
:200E40001F2884F82800C1D10020FFF7F1FD226DA36C9A42BAD2F8BD1BB112B9236A03B17E
:200E60009847226DA36CE1799B1A8B42A8BF0B46C2F3080260329BB231462846224400F088
:200E80005DFB236D1844A36D20655BB1C0F3080040B9606DE26DE369204910449847E36D65
:200EA0000133E36594F860322BB90120FFF7C0FD012384F8603294F86122C2F10D010029B5
:200EC000C9DDE37902F262228B42A8BF0B4628469BB22179224400F02AFB94F861320344DD
:200EE00084F86132B7E79847236DC3F30803002B85D17BE7002BD5D0E26D9A42D2D1606DC7
:200F0000E3690649104498470023E365636A002BC8D09847C6E700BFB80C0020180D002094
:200F200010B5164CA3719DF808306271E371039B4FF0FF32A360049B2171E360059B104904
:200F40002361069B2060013B6361079BA361089BE3610023C4E90833C4E91523C4E912337D
:200F6000E36584F828302365A4F86032A4F8703284F8723200F0DBFE204610BDB80C002061
:200F8000E909000860224021014B00F0A3BB00BF950F0008487821280FD1087810F01F00E7
:200FA0000DD18988042907D1064911601A88282A01D928221A8001207047022070470020FA
:200FC000704700BF922B000810B50446074AEE2100F07EFA2046064900F0A9FE2046BDE8A8
:200FE000104060224021034B00F074BB892B0008850F0008950F0008054BD3F8F0270260B9
:20100000D3F8EC274260D3F8E8378360704700BF00F0FF1FF0B505460C46194B89B003AA73
:2010200003F11007164618685968083303C6BB423246F7D11B7868463370FFF7DDFF192CCC
:2010400028BF19240023611E681C8B4203DB00236B5409B0F0BD08AA02EB630212F8202CF9
:2010600008AC04EB121414F8144C02F00F02EC5408AC224412F8142CC2540233E5E700BFBE
:20108000BA2B0008064A074BD068B3F8E0309BB2B3F5007F84BFD36C184300F035007047A1
:2010A0000020024000F7FF1F38B504460D4600F0DBF9164BB3F8E0309BB2B3F5007F144B7C
:2010C00019D9144A944216D91A6D42F001021A65258000F0C9F90D4BB3F8E0309BB2B3F561
:2010E000007F0B4B0CD90B4A944209D91A6D22F001021A6538BD1A6942F001021A61E7E718
:201100001A6922F001021A61F4E700BF00F7FF1F00200240FFFF070810B5044600F0A4F902
:201120001A4BB3F8E0309BB2B3F5007F184B1DD9184A94421AD91A6D42F002021A655C659A
:201140001A6D42F040021A6500F08EF90F4BB3F8E0309BB2B3F5007F0D4B11D90D4A9442A6
:201160000ED91A6D22F002021A6510BD1A6942F002021A615C611A6942F040021A61E3E772
:201180001A6922F002021A61EFE700BF00F7FF1F00200240FFFF07082DE9F04100264FF076
:2011A0000F0E9C46036847684CFA06F4E4071BD5072E94BF9846B846B4B24FEA84048ABF27
:2011C000203CA4B2A4B20EFA04F528EA0508A51CADB202FA05F501FA04F42C4344EA080435
:2011E000072E94BF234627460136102EDCD103604760BDE8F0810000062809D8DFE800F089
:20120000221D18130E090400114A536A9B07FCD570470F4A136A9907FCD570470C4A136838
:201220009807FCD570470A4A13689B03FCD57047074A13689900FCD57047054A13681801C2
:20124000FCD57047024A13689B01FCD5704700BF0010024006282AD8DFE800F0040A0F14F2
:20126000191E2400124A136843F08073136070470F4A136843F08063F8E70D4A136843F01E
:201280008053F3E70A4A136843F48033EEE7084A136843F00103E9E7054A136A43F001033C
:2012A00013627047024A536A43F001035362704700100240034A536823F0030303435360EA
:2012C000704700BF00100240034A536823F4701343EA80435360704700100240034A5368F0
:2012E00023F4803343EA00435360704700100240034A536823F4003343EA4043536070478C
:2013000000100240034A536823F4404343EA80335360704700100240034A536823F460536B
:2013200043EAC0235360704700100240034A536823F4E06343EA0023536070470010024073
:20134000034A536823F0F00343EA0013536070470010024008B50420FFF77CFFFFF74CFFF0
:201360000020FFF7A7FF0320FFF774FFFFF744FF0120FFF79FFF0020FFF7E2FF0220FFF728
:20138000C1FF0420FFF7D2FF0020FFF7C5FF022000F048F80720FFF797FF0120FFF79EFF0F
:2013A000FFF7A6FF0020FFF755FFFFF725FF0220FFF780FF044B054A05491360054A116058
:2013C000054A136008BD00BF00A24A041C0000200051250220000020240000200904016130
:2013E00070470122430903F1804303F50433196800F01F0002FA00F00843186070470122C8
:20140000430903F1804303F50433196800F01F0002FA00F0014319601A6822EA000018605B
:2014200070470000034A136823F0070303431360704700BF00200240054B1A6942F08002F8
:201440001A61044A5A6002F188325A60704700BF0020024023016745024A136943F080037C
:20146000136170470020024008B5FFF70BFEC307FBD408BD2DE9F0411E4603681746054607
:2014800088469847069B4FF0FF32C360079BC0E9008703610023C0E93923089AC0E933335C
:2014A0004261BDF82420C0E935330283054AC0F8E0504267044A86600267044AC266BDE862
:2014C000F08100BF011700085D170008E117000822B1002902DDC0E9391270474FF0FF3349
:2014E000C0F8E4307047D0F8E0305B6A184710B4D0F8E040A468A44610BC604737B5002547
:20150000044603684583DB792A4629460095FFF7EEFFD4F8E03029465B6820469847236AC3
:201520001BB103B0BDE83040184703B030BD10B4D0F8E040E469A44610BC604710B4D0F836
:20154000E040246AA44610BC6047D0F8E0301B691847D0F8E0309B69184710B50122002181
:201560000446FFF7F2FF002384F8303010BD70B50368B0F84020448FDB79A41A9C42A8BFAC
:201580001C46C16BA6B20A44334600210546FFF7D5FF864205D02846FFF7DFFF4FF0FF301B
:2015A00070BDB5F84030A0B21E44A5F84060F7E710B503680446D979B0F84030C26B994226
:2015C00011D20B460021FFF7B2FF022384F830302368E26BD979B4F840300A445B1AE263C0
:2015E000A4F8403010BD0021FFF7A1FF94F84830002B14BF0223032384F83030002384F893
:201600004830A4F84030E363ECE72DE9F74F04460E46054600F1200A00F13C0800F1400B5C
:2016200000F14409EF6C47B95B4642463146204603B0BDE8F04F00F0E7BB317895F851203B
:2016400095F8503011408B4203D008355545E9D1EAE75B46424631462046CDF80090B847D0
:201660000128F2D803B0BDE8F08F38B543690446C3638B79CA790D4643EA0223A0F84030A3
:20168000FFF7C3FF08B3EB88B3B1B4F8402021689342C9790ED932B1B2FBF1F301FB1322C8
:2016A000B2FA82F25209204684F84820BDE83840FFF77EBF0022F6E71A4619462046FFF7FB
:2016C00036FF042384F8303038BD2046BDE83840FFF743BF70B5002400F14C0656F8345004
:2016E0002DB10134042CF9D14FF0FF3070BD00EBC40484F85010284684F85120E364F5E735
:2017000070B5002500F1340608233246294645640446FFF713FF082804D02046BDE8704088
:20172000FFF71BBF638F2BB931462046BDE87040FFF79BBF94F93420002AF5DB228B9A421D
:20174000EBD36269A4F84050E2632268D2799A4234BF0523062384F8303070BD10B590F844
:2017600030300446062B13D0072B28D0052B22D1FFF7FDFE00280ADBB4F84020638F9B1AAD
:201780002268D279934202DC062384F8303010BDFFF7EDFE0028FADB204604F13401FFF78B
:2017A00034FF38B1002320461A461946FFF7BFFE0423EAE72046BDE81040FFF7CEBE00231A
:2017C0001A461946FFF7BAFE002384F83030636C1BB1204604F13401984700236364D6E7EC
:2017E00010B590F830300446032B07D0042B09D0022B1CD1BDE81040FFF7DABE072384F8A2
:20180000303010BD436C13B100F13401984794F8343053B994F83530052B06D1E18ED4F8F4
:20182000E03020465B68C9B298470023E7E7BDE81040FFF792BE08B50B786BB949887F290C
:201840000AD8D0F8E030C9B2817693F830200AB15B689847012000E0002008BDF8B50D463E
:201860004988044679B103680D26587C0023984201D80020F8BD626806FB032252798A427F
:2018800003D00133F3E74FF0FF330133DBB2E3764BB9D4F8E0302046DB689847D4F8CC30AC
:2018A0009BB90120E6E70D22534362680D3B13440022104619799142EBD9D3F8091016011C
:2018C000715801B108700132F4E7002304F1CC06E3646365E365636604F1DC0756F8043B98
:2018E00013B1204669889847B742F7D1D9E71988012984BF01211980C37E11682BB1426864
:201900000D2000FB032313F8083C01200B70704770B51C460D23C27E5A4343680D3A1344FA
:201920001D798A88954219D9D3F80950160105EB02124B8812799A4210D9AA5952B113704B
:20194000D0F8DC3013B14A888988984700230120238070BD002BF3D01046FAE70020F8E7F5
:2019600030B50D25C47E40686C430D3C04448D88207985420CD2012018808B88D4F8090032
:201980001B011B5803B11B7801201268137030BD0020FCE719880120022984BF0221198077
:2019A000002311680B7012685370704710B514461A88022A84BF02221A808988C9B2FFF7AC
:2019C000C8FD003818BF0120002223681870236801205A7010BD08B589880122C9B2FFF738
:2019E000B4FD012008BD08B589880022C9B2FFF7ACFD012008BD2DE9F04F1D464B88064689
:201A0000180A0328174689B000F02C8105D8012828D0022831D000202CE00F28FBD1B468D2
:201A2000002CF8D0D6F814902E88C2F8009027784FF0000AB74228BF374621463A46484686
:201A400000F0AAFDF61B94F800B009EB0703B6B221791FFA8AF2914200F2E780A9F802B08E
:201A60002F8031E0336813601B782A88934228BF13462B8009B0BDE8F08F7269DBB23A60B4
:201A80000D275F43D6F804802C8818F8076008EB0703A64228BF26460392194632460398B4
:201AA000059300F079FD0022039BA41B18F807703344A4B20292059A1179BDF808209142E8
:201AC00004D8039B5F802E800120D3E7029A029912010692059AD2F8092002EB0112D2F8E6
:201AE0000890B9F1000F14D099F800801846A04528BFA0464946424600F04EFD034699F864
:201B00000020A4EB0804464417444344A4B2B6B2BFB200220492059A0699D2F809200A4438
:201B20001079BDF81010884202D8029A0132C1E715200499D2F80C9000FB01F819F808A047
:201B400009EB0802A24528BFA2461846019209EB0801524600F020FD034619F80820A4EB2D
:201B60000A041744019A5644D2F80D105344A4B2B6B2BFB2B1B1D2F811901846A145A8BFA2
:201B8000A1461FFA89F8424600F006FD0346019AA4EB0804D2F81120464417444344A4B20D
:201BA000B6B2BFB24FF00008019A11791FFA88F2914202D8049A0132ACE7019AC8EB081ACC
:201BC000D2F809B018461BF80A200BEB0A09A24228BF22464946079200F0DEFC0346079ACF
:201BE000D9F80710A41A164413441BF80A20A4B21744B6B2BFB2A9B1D9F80BB01846A3459B
:201C0000A8BFA3461FFA8BFA524600F0C5FC0346D9F80B20A4EB0A04564417445344A4B2C9
:201C2000B6B2BFB208F10108BEE7D4F80520184652F82A100AF1010A91F800800191B045BB
:201C400028BFB046424600F0A7FC03460199A6EB08060A78474493444344B6B2BFB21FFAAD
:201C60008BFBF5E613F0FF0374690DD10923A3700423E37023702B88042B28BF04232B805C
:201C8000032363703C601FE7D6F8E4209A4219D1D6F8E860304600F0ABFD01304000C0B20A
:201CA00020702B88984228BF1846002328802A885208013A9A42E3DDF15C04EB43025180C2
:201CC0000133F4E7F068013B00283FF4D3AE32699A427FF7A0AE40F20942898891427FF476
:201CE0009AAE50F82360304600F082FD01304000C0B220702B88984228BF184600232880DC
:201D00002A885208013A9A42BADDF15C04EB430251800133F4E719880120022984BF022155
:201D20001980002311680B70126853707047002310B500F1CC0454F8042B2AB10133042B9D
:201D4000F9D14FF0FF3010BD00EB8303C3F8CC101046F8E710B44C78092C12D8DFE804F0DF
:201D60000D111111110F0B110905074CA44610BC6047064CFAE7064CF8E7064CF6E7064C44
:201D8000F4E7002010BC70475D180008EF180008F7190008951900083718000810B44C788C
:201DA0000A2C06D00B2C06D03CB9054CA44610BC6047044CFAE7044CF8E7002010BC704764
:201DC000171D0008611900081119000810B44C78012C04D0032C07D01CB9084C08E04C889F
:201DE0004CB1002010BC70474C88002CF9D1044CA44610BC6047034CFAE700BFAD1900080F
:201E0000D7190008E719000810B40C7814F0600F0FD104F01F04012C05D0022C06D044B90D
:201E200010BCFFF797BF10BCFFF7B8BF10BCFFF7CDBF002010BC704708B540F29730FFF7B4
:201E4000D0FA0022064B0748C3F8402CC3F8502CC3F8442C4FF41C42C3F8402C08BD00BF21
:201E600000500040300F00200132521001EB4202914200D1704731F8023B40F8043BF7E798
:201E8000034670B502F00104520801EB8205A94204D114B10B7800F8123070BD31F8046B09
:201EA00023F8026BF3E7FEE770470000194B1A4A1A498B4219D30021194A93421AD34FF0BB
:201EC000E022D2F8143D174C43F40073164DC2F8143DAC4211D3154C154DAC4211D3FEF70E
:201EE00019FA144C144DAC420FD352F8040B43F8040BDEE743F8041BDFE754F8043B98474C
:201F0000E7E754F8043B9847E7E754F8043B9847E9E700BF00000020002C00082800002026
:201F200040100020002C0008002C0008002C0008002C0008002C0008002C00084FF0E023B7
:201F4000014AC3F80C2DFEE70400FA05024B41F08001C3F84C1C7047005000403E2A104B2E
:201F60004FEAC1010ED9D3F8503CD0069BB219440C4B18BF203A0C4843EA4212490092B2BE
:201F800042507047D3F8503CD0079BB248BF013219449202044B490092B25A50704700BF56
:201FA000005000400080FFFF0C6000402DE9F7431F464FF40073ADF800304FF48063ADF85C
:201FC00002300023ADF804304FF4C06301F07F094FEA890404F1804404F5B844ADF80630A5
:201FE0002368064623F4E04323F07F0343EA09039BB22360236802A800EB420232F8082C70
:2020000023F4EC4323F07003134349B29BB20029DDF8288023604FEAC90030DBB9F1000F67
:202020002DD03A4BB28BD3F8503C49469BB21844374B40001A503A463046FFF78FFFB8F103
:20204000000F57D12368102223F4415323F030031B041B0C23600123216821F4804121F03E
:20206000700189B25B00013A9BB249D1B28B41F4004141F0800117442160B78332E0234BBC
:20208000B28BD3F8503C9BB203445B0003F1804303F5C0431A60B8F1000F04D00C2303FBD8
:2020A0000963C3F86C8023684FF0100C23F4E04323F030031B041B0C23600123256825F414
:2020C000E04525F04005ADB25B00BCF1010C9BB20BD145F4004545F080053A440029256080
:2020E000B2839EDA03B0BDE8F08313F0200F18BF5D40E9E70C2101FB0969C9F87080A1E71E
:2021000013F4405F18BF5940ACE700BF005000400860004048F2800170B50B4A0B4E0C4D38
:202120000C4C136833400B439BB2136013682B400B439BB242F8043BA242F2D10368DB79EB
:2021400020335B00838370BD045C0040BF8FFFFF8FBFFFFF205C004030B5002944D1002A5D
:2021600014BF1025202510240120354BD3F8003C23F4E04323F040039BB2284218BF434095
:202180004000013C80B2F8D12D4843F4004343F08003C0F8003C890001F1804101F5B84103
:2021A0003AB90B6823F4415323F030031B041B0C0B60002A14BF4FF480544FF440541020FC
:2021C00001220B6823F4804323F070039BB2224218BF53405200013892B2F8D143F40043DC
:2021E00043F080030B6029E00B06D4D5002A14BF102520251024012001F07F039B0003F12D
:20220000804303F5B843196821F4E04121F0400189B2284218BF41404000013C80B2F8D18A
:2022200041F4004141F0800119603AB91A6822F4E04222F030021204120C1A6030BD00BFB2
:20224000005000400B060ED501F07F01890001F1804101F5B841086800F03000102814BFC3
:20226000002001207047890001F1804101F5B841086800F44050B0F5805FF0E70B0616D4F1
:20228000134B14485A54890001F1804101F5B8410B6803409BB210207AB10122520001389F
:2022A00092B205D143F4004343F080030B60704712F4005F18BF5340F0E70122520001385E
:2022C00092B2EFD012F4405F18BF5340F6E700BF381000208FBFFFFF2DE9F0410C461E469F
:2022E00004F07F039D0005F1804505F5B84511462A6802F03002302A35D0DFF8708032466E
:20230000D8F8504CDF00A4B204EBC304640004F1804404F5C0442088400000F1804000F5BE
:20232000C040FFF7A1FDD8F8503C10229BB21F440F4B7F00DE510123296821F4E04121F0C7
:20234000400189B25B00013A9BB207D141F4004141F0800129603046BDE8F08113F0300FC7
:2023600018BF5940EEE70026F5E700BF0050004004600040F8B58D0005F1804505F5B84537
:202380001C462B680E4603F44053B3F5405F104648D0254FCA00D7F8503C9BB203EBC1031D
:2023A00022495B00CB58C3F30903A34207DAD7F8503C9BB213445B00CC58C4F309041A4B05
:2023C000D3F8503C9BB21A44194B5200995A2246490001F1804101F5C041FFF751FD2B6820
:2023E00023F0F0031B051B0D43F080032B60114B9B5D83B910220123296821F4804121F0F0
:20240000700189B25B00013A9BB206D141F4004141F0800129602046F8BD13F4405F18BF0D
:202420005940EFE70024F6E7005000400C60004008600040381000203E4A38B5D2F8443C21
:20244000044659059DB209D54FF6FF33C2F8443C40238383BDE83840FFF750B8190425D55B
:2024600003F00F01C3F300128B0003F1804303F5B843186849B9002A41D0020607D594F82F
:202480003020032A03D1084606E0002A37D010F4006F14BF0220012001EB4102024404EB99
:2024A0008202D26E002A34D0204690472A0507D54FF2FF721F4BC3F8442C636A03B198473B
:2024C000EB0407D54EF6FF721A4BC3F8442CA36A03B1984715F4007F164D06D04FF6FF52F5
:2024E000E36AC5F8442CEBB19847E36AD3B1114AD2F8403C43F40073C2F8403C38BD1A681E
:20250000002022F0F0021205120D42F400421A60C2E71A6822F0F0021205120D42F0800256
:202520001A60C3E7D5F8403C23F40073C5F8403CE4E700BF00500040032A70B412D940EAEB
:202540000105AD0704460B4620D11946204653F8045B54F8046BAE4218D1043A032A204661
:202560001946F2D8541E72B103780A789A4208BF241806D00CE010F8013F11F8012F9342A9
:2025800006D1A042F7D1002070BC7047541EEBE7981A70BC704700BF844641EA000313F024
:2025A000030349D1403A23D30B6803604B6843608B688360CB68C3600B6903614B69436103
:2025C0008B698361CB69C3610B6A03624B6A43628B6A8362CB6AC3620B6B03634B6B43632B
:2025E0008B6B8363CB6BC36340304031403ADBD230320BD30B6803604B6843608B68836059
:20260000CB68C36010301031103AF3D20C3205D351F8043B40F8043B043AF9D2043208D0A8
:20262000D2071CBF11F8013B00F8013B01D30B8803806046704700BF082A13D38B07B1D03C
:2026400010F00303AED0C3F10403D21ADB071CBF11F8013B00F8013BA4D331F8023B20F824
:20266000023B9FE7043AD9D3013A11F8013B00F8013BF9D20B7803704B7843708B788370CC
:20268000604670478842F0B40DD98B1883420AD9841832B1224613F8014D994202F8014DDB
:2026A000F9D1F0BC70470F2A0ED80346541E002AF7D001340C44013B11F8012BA14203F84E
:2026C000012FF9D1F0BC704740EA01039B073AD1A2F110073F0901F1200606EB071601F1B8
:2026E000100300F1100453F8105C103344F8105C53F81C5C103444F81C5C53F8185C44F86A
:20270000185C53F8145CB34244F8145CEBD17B1C1B0112F00C0F194402F00F05034415D0CE
:202720000E46043DAD0803EB850C1C1F56F8047B44F8047F6445F9D10135AD002B442944D7
:2027400002F00302B2E7541E0346B2E72A46ADE7F0B4860746D0541E002A3CD0CAB20346DD
:2027600002E014F1FF3436D303F8012B9D07F8D1032C29D9CDB245EA05250F2C45EA0545E5
:2027800033D9A4F11006360903F1200707EB061703F1100242E9045542E902551032BA42CF
:2027A000F8D1721C14F00C0F03EB021204F00F0613D0331F23F003030433134442F8045B23
:2027C0009342FBD106F003042CB1C9B21C4403F8011B9C42FBD1F0BC704734461346002C80
:2027E000F3D1F8E714460346C2E71A462646E0E720F0030110F00300C0F1000051F8043B07
:2028000000F1040C4FEACC0C6FF000021CBF22FA0CF213434FF0010C4CEA0C2C4CEA0C4CB2
:20282000A3EB0C0222EA030212EACC1204BF51F8043B0430F4D0C2F1000102EA0102B2FA7F
:2028400082F2C2F11F0200EBD200704770B440EA0104A30727D1032A25D90B4606461946A0
:2028600053F8045BA5F1013424EA050414F0803F06D1043A032A46F8045B1946EFD882B1D1
:2028800033460C78551E03F8014B74B132442E4405E011F8014FF51A03F8014B2CB19A4227
:2028A000F7D170BC70470646E9E7002DF9D000221D4403F8012BAB42FBD170BC704700BF56
:2028C00034322E30300055463220426F6F746C6F61646572004578616D706C65204C7464FC
:2028E00000307800444D455347206C696E6520746F6F206C6F6E67210A0025003F3F3F00A9
:20290000466C75736820617420257800577269746520666C75736820617420257800536B46
:20292000697020626C6F636B20617420257800577269746520626C6F636B206174202578F9
:2029400000EB3C90554632205546322000020101000240003E1FF820000100010000000029
:2029600000000000000000294200420059524B425F55504441544546415431362020203C72
:2029800021646F63747970652068746D6C3E0A3C68746D6C3E3C626F64793E3C73637269BD
:2029A00070743E0A6C6F636174696F6E2E7265706C616365282268747470733A2F2F6769A3
:2029C000746875622E636F6D2F4F682D4D792D4D656368616E6963616C2D4B6579626F6164
:2029E000726422293B0A3C2F7363726970743E3C2F626F64793E3C2F68746D6C3E0A000074
:202A0000494E464F5F55463254585400302A0008494E44455820202048544D007F2900088B
:202A200043555252454E5420554632000000000055463220426F6F746C6F616465722076F8
:202A4000322E312E312D64697274790D0A4D6F64656C3A2059524B425F5550444154450D64
:202A60000A426F6172642D49443A2059524B425F5550444154455F46310D0A004465766189
:202A80006E617263687900444150426F6F742044465520426F6F746C6F6164657200444199
:202AA00050426F6F742044465500050F1D00010800002009020000020100C032E82A0008BF
:202AC0001201100200000040091242DB1001010203010904000000FE01020400000000002F
:202AE0000000000000000000000000000100000000000000D22A00080000000001000000D0
:202B000000000000262B00080705010240000000000000000000000705820240000000003D
:202B2000000000000000090401000208065000082B0008000000000000000070000000007C
:202B400000000A000000000000000000000080040220000000202020202020202020202065
:202B600020202020202020202020202020202020201810050038B60834A909A0478BFDA01D
:202B8000768815B665000101014D53465431303021002800000000010400010000000000EA
:202BA0000000000157494E555342000000000000000000000000000000003031323334350D
:202BC000363738394142434445460000391E00084D1F0008AD1F000815210008592100081B
:202BE0007D22000845220008D92200087523000839240008000000000000000000000000B7
:202C000001000000FFFFFFFF712B00087C2A0008872A00089C0800209E2A000800127A008C
:202C200000127A0000127A000000000000000000000000000000000000000000000000007C
:202C4000000000000000000000000000000000000000000000000000000000000000000074
:202C6000000000000000000000000000000000000000000000000000000000000000000054
:202C8000000000000000000000000000000000000000000000000000000000000000000034
:202CA000000000000000000000000000000000000000000000000000000000000000000014
:00000001FF
